:1000000045C0000061C000005FC000005DC000008E
:100010005BC0000059C0000057C0000055C0000080
:1000200053C0000051C000004FC000004DC0000090
:100030004BC0000049C0000047C0000045C00000A0
:1000400043C0000041C000003FC000003DC00000B0
:100050003BC0000039C0000037C0000035C00000C0
:1000600033C0000031C000002FC000002DC00000D0
:100070002BC0000029C0000027C0000025C00000E0
:1000800023C0000021C000001FC0000011241FBEBB
:10009000CFEFD0E4DEBFCDBF13E0A0E0B1E0E4EDF0
:1000A000F8E100E00BBF02C007900D92AC31B10740
:1000B000D9F723E0ACE1B3E001C01D92A03DB20747
:1000C000E1F706D50C94680C9BCFEF92FF920F934B
:1000D0001F93CF93DF938091CA039091CB030E942B
:1000E00035098093A8038B32D9F0CAECD3E088811C
:1000F00099810E9435098093A8038B32C1F710C003
:100100008091A8038993F801808191810E9435092B
:100110008093A803EC16FD0699F78091B3030BC0FA
:10012000C3EBD3E00F2EF0ECEF2EF3E0FF2EF02D1B
:100130000AEC13E0E5CFDF91CF911F910F91FF9073
:10014000EF9008950F931F93CF93DF93C4EBD3E009
:1001500000EC13E0899190E00E94C209C017D1071A
:10016000C9F7DF91CF911F910F910895EF92FF9200
:100170000F931F93CF93DF93E3EBF3E02CE431E095
:10018000CEE3D1E00F2EF0E3EF2EF1E0FF2EF02DC5
:1001900060EC73E050E010E000E091E08191D90163
:1001A0004D919D018413092FD7014D917D01841339
:1001B000192F49918413592FE617F70779F7E2ECC5
:1001C000F3E00183128353838081DF91CF911F91EC
:1001D0000F91FF90EF900895CF93DF931092B203A9
:1001E0001092B1031092C1031092C00383E791E013
:1001F0000E94C70981E090E0DFD087E791E00E948C
:10020000C70981E090E0D8D082E891E00E94C70958
:10021000CAECD3E011C0888199810E94350980938E
:10022000A8038A3049F48091C0039091C1030196DC
:100230009093C1038093C0038091C0039091C10348
:1002400002974CF38091CA039091CB030E94350929
:100250008093A8038B3209F062C037DF8091CA0314
:100260009091CB030E9435098093A8038A3049F00E
:10027000CAECD3E088819981F8D78093A8038A30AB
:10028000C9F78091CA039091CB03EFD78093A8035D
:100290008053823078F56ADFE2ECF3E021818281DD
:1002A00090E0820F911D2381820F911D03978CF4A2
:1002B0008091A8038093C203803319F4139828987F
:1002C00004C0813311F4139A289A8091A80342D173
:1002D0006EC082E08093C20388E991E00E94C70962
:1002E0002FE78AE196E0215080409040E1F700C07E
:1002F00000005DC0E2ECF3E086E0808313821282AE
:10030000118288E991E00E94C7092FE78AE196E00F
:10031000215080409040E1F700C0000048C08F3479
:1003200099F58091CA039091CB039FD78093A8033E
:100330008B34A9F4E2ECF3E083E080831382128231
:10034000118288E991E00E94C7092FE78AE196E0CF
:10035000215080409040E1F700C0000028C0E2EC4E
:10036000F3E084E0808313821282118288E991E0B5
:100370000E94C7092FE78AE196E021508040904013
:10038000E1F700C0000013C0E2ECF3E085E08083F9
:1003900013821282118288E991E0F9D72FE78AE16E
:1003A00096E0215080409040E1F700C0000080912D
:1003B000C203DF91CF9108950F931F93CF93DF93E3
:1003C0008C011092900310928F038091CA03909138
:1003D000CB034BD78093A8038A3049F0CAECD3E013
:1003E0008881998142D78093A8038A30C9F7013068
:1003F000110571F58091CA039091CB0336D7809394
:10040000A8038F34F1F48091CA039091CB032DD7C8
:100410008093A8038B3471F48091CA039091CB032D
:1004200024D78093A80381E090E090939003809379
:100430008F0378C082E090E09093900380938F03C5
:1004400071C082E090E09093900380938F036AC024
:100450000230110509F03AC0C5E0D0E00AEC13E023
:10046000F8018081918101D78093A8032197C1F77A
:100470008091CA039091CB03F8D68093A8038F3460
:10048000F1F48091CA039091CB03EFD68093A80337
:100490008B3471F08091CA039091CB03E6D68093A0
:1004A000A80381E090E09093900380938F033AC07B
:1004B00082E090E09093900380938F0333C082E0BA
:1004C00090E09093900380938F032CC0033011052C
:1004D00049F58091CA039091CB03C7D68093A803B6
:1004E0008B3271F1CAECD3E088819981BED68093BA
:1004F000A8038B32C9F724C0F80180819181B5D659
:100500008093A8038C3209F42196C730D105A4F357
:100510008091CA039091CB03A8D68093A80380331F
:1005200009F05ADEFFE926E881E0F15020408040E2
:10053000E1F700C0000080918F039091900305C007
:10054000C0E0D0E00AEC13E0D7CFDF91CF911F914C
:100550000F910895CF93C82F85EA91E018D781E0D5
:1005600090E02ADF82EB91E09F938F93F8D6EADD4B
:100570001F92CF938CEB91E09F938F93F0D62FE750
:100580008AE196E0215080409040E1F700C00000F1
:100590006091CC037091CD038AE190E0A4D681E014
:1005A00090E00ADF0F900F900F900F900F900F9038
:1005B000CF910895EF92FF920F931F93CF93DF9304
:1005C000C82FD92F162F072FF42EE52E83E791E0A1
:1005D000DED681E090E0F0DE83ED91E0D8D62FE921
:1005E00086E891E0215080409040E1F700C0000093
:1005F00081E090E0E1DE8FED91E0C9D681E090E00E
:10060000DBDE8CEE91E0C3D681E090E0D5DE87E0C2
:1006100092E0BDD681E090E0CFDE2FE78AE196E060
:10062000215080409040E1F700C0000080E192E05E
:10063000AED62FEB87E299E0215080409040E1F761
:1006400000C000008AE192E0A2D62FEB87E299E099
:10065000215080409040E1F700C0000085E492E026
:1006600096D62FE38DE093E0215080409040E1F753
:1006700000C000008091C203EF92FF921F928F93FF
:100680001F928F930F931F93DF93CF9381E592E097
:100690009F938F9364D62FE986E891E021508040A4
:1006A0009040E1F700C000006091CC037091CD0351
:1006B0008AE190E018D62FEB87E299E02150804044
:1006C0009040E1F700C000008AEA92E060D681E045
:1006D00090E072DE87EB92E05AD682E090E06CDE2A
:1006E0008DB79EB70C960FB6F8949EBF0FBE8DBF08
:1006F000DF91CF911F910F91FF90EF9008950F938D
:100700001F93CF93DF931092B2031092B103109214
:10071000C1031092C00383E791E039D62FE78AE145
:1007200096E0215080409040E1F700C00000CAEC04
:10073000D3E06A817B818AE190E0D5D5EFE7FAE1E9
:1007400026E0E150F0402040E1F700C0000087E7DC
:1007500091E01DD681E090E02FDE83EC92E017D689
:100760008FE79AE1E6E081509040E040E1F700C079
:1007700000008BED92E00BD68881998176D580932D
:10078000A8038B3209F482C0888199816ED5809349
:10079000A8038B32C9F77AC0F8018081918165D5B1
:1007A0008093A8038C3209F42196C730D105A4F3B5
:1007B0008091CA039091CB0358D58093A8038033CE
:1007C00009F00ADDFFE926E881E0F1502040804091
:1007D000E1F700C0000085EE92E0D9D5CAECD3E085
:1007E00010C08881998141D58093A8038A3049F44B
:1007F0008091C0039091C10301969093C1038093AF
:10080000C0038091C0039091C103029754F380917B
:10081000CA039091CB0329D58093A8038B3299F515
:1008200054DC8091CA039091CB031FD58093A80319
:100830008A3049F0CAECD3E08881998116D580933B
:10084000A8038A30C9F78091CA039091CB030DD5D4
:100850008093A80390ED980F923090F48093C20398
:10086000EFE4F3EC3197F1F700C000008091A803AA
:10087000803311F4139807C0813329F4139A03C00D
:1008800086E08093C2038091C20305C0C0E0D0E03F
:100890000AEC13E081CFDF91CF911F910F91089562
:1008A0006F927F928F929F92AF92BF92CF92DF9280
:1008B000EF92FF920F931F93CF93DF931092B203A7
:1008C0001092B1031092920310929103CAECD3E0FC
:1008D0000FE213E0EE24E394F12C0F2EFCE8CF2E70
:1008E000F3E0DF2EF02DD7C088819981BED48093AC
:1008F000680120911C0330911D03F901E85DFC4F54
:1009000080832F5F3F4F30931D0320931C03209162
:10091000260330912703A9014F5F5F4F50932703B0
:1009200040932603A0902403B0902503A5014F5FB8
:100930005F4F50932503409324038D3009F0ABC0E3
:1009400010922303109222030F2EF9E26F2EF3E090
:100950007F2EF02D4AE551E0D30180E090E07D91BB
:10096000FA016191AF01761301C00196A017B1079A
:10097000B1F79093210380932003A1E6B1E0812C8D
:10098000912CF30151913F014D91541303C0FFEF9E
:100990008F1A9F0A60167106A1F790921F0380922A
:1009A0001E03069771F4C901029637D39093AC03E6
:1009B0008093AB0368E273E051D4F092B203E0920B
:1009C000B10326E08216910479F4C501029625D37D
:1009D0009093AA038093A90368E273E03FD4F09256
:1009E0009203E092910307C080919103909192034A
:1009F000019709F03EC08091B1039091B203019735
:100A0000C1F58EE090E009D39093B0038093AF03DB
:100A100063EB73E023D44FE986E891E041508040D6
:100A20009040E1F700C000004091AF035091B00347
:100A30006091A9037091AA038091AB039091AC03DC
:100A4000B9DD8091AB039091AC037FD38091A90372
:100A50009091AA037AD38091AF039091B00375D39C
:100A6000EFE7FAE126E0E150F0402040E1F700C076
:100A7000000010921D0310921C0310922703109285
:100A800026031092250310922403E8E2F3E011926A
:100A9000EC15FD05E1F78091910390919203892B6C
:100AA00009F422CF8091B1039091B203892B09F40C
:100AB0001BCFDF91CF911F910F91FF90EF90DF90AF
:100AC000CF90BF90AF909F908F907F906F90089540
:100AD000CF93DF93CDB7DEB765970FB6F894DEBF3F
:100AE0000FBECDBF139828980B9A139A89EF90E008
:100AF0000197F1F700C0000014D1F82E8111FCCF4E
:100B00008AE0E9E6F1E0DE01119601900D928A9506
:100B1000E1F78E01055F1F4F8BE0F80111928A9576
:100B2000E9F789E08D8B60E070E0CB01CBD16AE022
:100B300070E0C801F5D11CD26801DE0111969E015A
:100B40002B5E3F4FF80181E041919D9149138F2D1C
:100B5000E217F307C9F7811113988CE090E030D2C7
:100B60008CE090E01FD20B9A209AEAECF3E086E04A
:100B700091E09183808382E291E09383828380EF8E
:100B800092E09F938F93EBD37E01F6E1EF0EF11C81
:100B90000F900F9008E113E0F60181916F011F9211
:100BA0008F931F930F93DBD30F900F900F900F90A5
:100BB000CE14DF0489F785E092E0E9D3FFE32CEA65
:100BC00087E2F15020408040E1F700C0000097DD4F
:100BD0000AEC13E00F2EF2E2EF2EF1E0FF2EF02DE3
:100BE0008E2C9F2C0F2EF4E1AF2EF1E0BF2EF02DB6
:100BF0000F2EF6E0CF2EF1E0DF2EF02DF8018282ED
:100C00009382B182A0824CDEF801F382E282D1822B
:100C1000C08283E791E0BBD381E090E0CDDB87E742
:100C200091E0B5D381E090E0C7DB8BED92E0AFD3EC
:100C300083E090E0C1DBFFE32DE083E0F150204052
:100C40008040E1F700C00000D9CFCF92DF92EF9251
:100C5000FF92CF93C82F6A017B0188234CF440E0B8
:100C600050E0BA0187E7F1DF823008F054C0CF7757
:100C70002C9A8FEF8EBD0DB407FEFDCF8EB52C984C
:100C80008FEF8EBD0DB407FEFDCF8EB5CEBD0DB47A
:100C900007FEFDCF8EB58F2D9927AA27BB278EBDC6
:100CA0000DB407FEFDCF8EB5C701AA27BB278EBDA9
:100CB0000DB407FEFDCF8EB5BB27AF2D9E2D8D2D1C
:100CC0008EBD0DB407FEFDCF8EB5CEBC0DB407FEB4
:100CD000FDCF8EB5C03421F0C83421F487E803C0BD
:100CE00085E901C081E08EBD0DB407FEFDCF8EB554
:100CF000CC3431F48FEF8EBD0DB407FEFDCF8EB531
:100D00009AE02FEF2EBD0DB407FEFDCF8EB58823E0
:100D100014F49150B9F7CF91FF90EF90DF90CF90FE
:100D20000895DF92EF92FF920F931F93CF93DF937B
:100D300000D000D0CDB7DEB784B1806B84B92E9AD5
:100D40008CB580618CBD8CB582608CBD8DB58160A9
:100D50008DBD8CB580648CBD2C9A1AE08FEF8EBD52
:100D60000DB407FEFDCF9EB51150C9F740E050E02D
:100D7000BA0180E46ADF813009F06BC04AEA51E0D1
:100D800060E070E088E461DF813069F509C081E2EC
:100D90008A95F1F7000081E0E81AF10839F472C091
:100DA0000F2EF0E1EF2EF7E2FF2EF02D40E050E0A5
:100DB00060E070E489EE49DF8111E9CF69C0FE018E
:100DC00031969E012B5F3F4F8FEF8EBD0DB407FE16
:100DD000FDCF9EB59193E217F307B9F7898186FF9E
:100DE0002BC00CE02AC040E050E0BA0189EE2DDFB4
:100DF000823030F001E00F2EF1E4DF2EF02D05C03F
:100E000002E00F2EF9EEDF2EF02D0F2EF0E1EF2E87
:100E1000F7E2FF2EF02D08C081E28A95F1F700007D
:100E200081E0E81AF108B9F040E050E0BA018D2DF8
:100E30000CDF8111F1CF01C004E0EF2871F040E038
:100E400052E060E070E080E500DF882339F000E0E8
:100E500005C000E003C000E001C000E000938E0385
:100E60002C9A8FEF8EBD0DB407FEFDCF8EB50023FB
:100E700039F08CB58D7F8CBD8DB58E7F8DBD15C045
:100E800011E013C040E050E0BA018AE7DEDE97CF00
:100E900040E050E0BA018AE7D8DE90E08E219F2141
:100EA000892B09F48CCF04E0C8CF812F0F900F90CD
:100EB0000F900F90DF91CF911F910F91FF90EF90C6
:100EC000DF900895AB01BC0180918E0383FD09C0C2
:100ED000032E39E0440F551F661F771F3A95D1F74F
:100EE000302D10928D0310928C039FEF9EBD0DB498
:100EF00007FEFDCF8EB58F3FC9F782E5A6DE8111D3
:100F00000DC08FEF8EBD0DB407FEFDCF9EB59F3F88
:100F1000C9F381E09E3F19F480E0089581E00895CF
:100F2000FC01680F791F8FEF8EBD0DB407FEFDCF5A
:100F30009EB5919320918C0330918D032F5F3F4F8D
:100F400030938D0320938C03E617F70769F721157B
:100F5000324061F49FEF9EBD0DB407FEFDCF8EB50C
:100F60008E3FC9F710928D0310928C0380E0089594
:100F700040E050E0BA018CE468DE81110AC09FEFC6
:100F80009EBD0DB407FEFDCF8EB58F3FC9F780E043
:100F900001C081E02C9A9FEF9EBD0DB407FEFDCFEE
:100FA0009EB508959093C5008093C40088E980930E
:100FB000C10086E08093C20082E08093C000089563
:100FC0009093CD008093CC0088E98093C90086E09F
:100FD0008093CA0082E08093C8000895E0ECF0E0BE
:100FE00080818823ECF78091C6000895CF93C82FA5
:100FF0008A3011F48DE0FADFE8ECF0E0808185FFC3
:10100000FDCFC093CE00CF910895E8ECF0E0808151
:101010008823ECF78091CE0008950F931F93CF9310
:10102000DF938230910510F482E090E0E091C803F4
:10103000F091C90320E030E0A0E0B0E0309719F172
:10104000408151810281138148175907C8F08417E4
:10105000950769F4109731F012960C931297139636
:101060001C9327C00093C8031093C90322C0211505
:10107000310519F04217530718F49A01BD01EF0129
:10108000DF01F801DBCF21153105F9F0281B390B01
:101090002430310580F48A819B816115710521F02E
:1010A000FB019383828304C09093C9038093C80398
:1010B000FE01329644C0FE01E20FF31F819391932B
:1010C00022503109398328833AC02091C6033091D8
:1010D000C703232B41F42091020130910301309387
:1010E000C7032093C603209100013091010121150F
:1010F000310541F42DB73EB74091040150910501EF
:10110000241B350BE091C603F091C703E217F307E8
:10111000A0F42E1B3F0B2817390778F0AC014E5F67
:101120005F4F2417350748F04E0F5F1F5093C703DA
:101130004093C6038193919302C0E0E0F0E0CF01B9
:10114000DF91CF911F910F910895CF93DF93009777
:1011500009F481C0FC01329713821282A091C80366
:10116000B091C903109781F420813181820F931FC0
:101170002091C6033091C7032817390751F5F09322
:10118000C703E093C60367C0ED0120E030E0CE174F
:10119000DF0740F44A815B819E0141155105F1F062
:1011A000EA01F5CFD383C28340815181840F951F1B
:1011B000C817D90759F488819981840F951F029621
:1011C000918380838A819B8193838283211531055A
:1011D00029F4F093C903E093C8033DC0E901FB8300
:1011E000EA8349915991C40FD51FEC17FD0761F4AB
:1011F00080819181840F951F0296E90199838883EC
:10120000828193819B838A83E0E0F0E012968D9146
:101210009C911397009719F0FD01DC01F7CF8D9198
:101220009C9111979D012E5F3F4F820F931F20913C
:10123000C6033091C7032817390769F4309729F49A
:101240001092C9031092C80302C013821282B09395
:10125000C703A093C603DF91CF910895FB01DC0182
:1012600001900D920020E1F70895CF93DF93EC01F8
:101270002B8120FF33C026FF0AC02F7B2B838E815A
:101280009F8101969F838E838A8190E029C022FFEF
:101290000FC0E881F9818081082E000C990B00971E
:1012A00019F420622B831AC03196F983E8830EC0AB
:1012B000EA85FB85099597FF09C02B81019611F0FE
:1012C00080E201C080E1822B8B8308C02E813F81A8
:1012D0002F5F3F4F3F832E83992702C08FEF9FEFF1
:1012E000DF91CF9108950F931F93CF93DF93FB016D
:1012F000238121FD03C08FEF9FEF2CC022FF16C07A
:1013000046815781248135814217530744F4A081D7
:10131000B1819D012F5F3F4F318320838C932681C4
:1013200037812F5F3F4F3783268314C08B01EC0139
:10133000FB010084F185E02D0995892BE1F6D801A8
:1013400016968D919C911797019617969C938E9364
:101350001697CE01DF91CF911F910F910895CF93F2
:10136000DF93CDB7DEB7AE014B5F5F4FFA016191FE
:101370007191AF018091CC039091CD0338D0DF9172
:10138000CF9108956091CC037091CD03ACCF0F93B2
:101390001F93CF93DF93E091CC03F091CD03238192
:1013A00021FF1BC08C01D0E0C0E0F80181918F01CA
:1013B0006091CC037091CD03DB011896ED91FC9107
:1013C0001997882331F00995892B79F3DFEFCFEF57
:1013D000ECCF8AE00995892B19F08FEF9FEF02C0BF
:1013E0008D2F9C2FDF91CF911F910F9108952F92F8
:1013F0003F924F925F926F927F928F929F92AF92A5
:10140000BF92CF92DF92EF92FF920F931F93CF93F1
:10141000DF93CDB7DEB72B970FB6F894DEBF0FBEC4
:10142000CDBF6C017B018A01FC011782168283818A
:1014300081FFBFC1CE0101963C01F6019381F70106
:1014400093FD859193FF81917F01882309F4ADC1BC
:10145000853239F493FD859193FF81917F01853227
:1014600021F4B60190E03FDFE8CF912C212C312C04
:10147000FFE1F315D8F08B3279F038F4803279F04F
:101480008332A1F4232D20611DC08D3261F08033A1
:1014900069F4232D216016C0832D8260382EE32D40
:1014A000E4603E2E2AC0F32DF8601DC037FC2DC02D
:1014B00020ED280F2A3040F08E32B9F436FC75C189
:1014C000232D2064322E19C036FE06C08AE0989E75
:1014D000200D1124922E11C0EAE02E9E200D112421
:1014E000222EF32DF0623F2E08C08C3621F4832D7E
:1014F0008068382E02C0883641F4F70193FD85914B
:1015000093FF81917F018111B3CF982F9F7D9554D7
:10151000933028F40C5F1F4F9FE399830DC08336EF
:1015200031F0833771F0833509F055C020C0F801E0
:10153000808189830E5F1F4F88248394912C5301EF
:1015400012C02801F2E04F0E511CF801A080B180BA
:1015500036FE03C0692D70E002C06FEF7FEFC5015A
:101560004ED14C018201F32DFF773F2E15C028018B
:1015700022E0420E511CF801A080B18036FE03C06B
:10158000692D70E002C06FEF7FEFC5012DD14C01D6
:10159000F32DF0683F2E820133FC19C0822D90E0BC
:1015A00088169906A0F4B60180E290E09CDE2A94A9
:1015B000F5CFF50137FC859137FE81915F01B601CA
:1015C00090E091DE21102A9421E0821A9108811482
:1015D000910479F7E1C0843611F0893639F5F801C4
:1015E00037FE07C060817181828193810C5F1F4F3C
:1015F00008C060817181072E000C880B990B0E5F6B
:101600001F4FF32DFF763F2E97FF09C090958095D1
:10161000709561957F4F8F4F9F4FF0683F2E2AE066
:1016200030E0A301F7D0882E861844C0853731F406
:10163000232D2F7EB22E2AE030E025C0932D997FF6
:10164000B92E8F36C1F018F4883579F0AEC08037E6
:1016500019F0883721F0A9C0E92FE061BE2EB4FE51
:101660000DC0FB2DF460BF2E09C034FE0AC0292F27
:101670002660B22E06C028E030E005C020E130E050
:1016800002C020E132E0F801B7FE07C0608171813D
:10169000828193810C5F1F4F06C06081718180E061
:1016A00090E00E5F1F4FA301B5D0882E8618FB2D4A
:1016B000FF773F2E36FE0DC0232D2E7FA22E8914DC
:1016C00058F434FE0BC032FC09C0832D8E7EA82E48
:1016D00005C0B82CA32C03C0B82C01C0B92CA4FEA3
:1016E0000FC0FE01E80DF11D8081803321F49A2D99
:1016F000997EA92E09C0A2FE06C0B394B39404C07B
:101700008A2D867809F0B394A3FC10C0A0FE06C011
:10171000B21480F4280C922C9B180DC0B21458F40B
:10172000B60180E290E0DFDDB394F8CFB21418F494
:101730002B1802C0982C212CA4FE0FC0B60180E308
:1017400090E0D1DDA2FE16C0A1FC03C088E790E0C6
:1017500002C088E590E0B6010CC08A2D867851F071
:10176000A1FE02C08BE201C080E2A7FC8DE2B601BF
:1017700090E0B9DD891430F4B60180E390E0B3DD88
:101780009A94F8CF8A94F301E80DF11D8081B60197
:1017900090E0A9DD8110F6CF222009F44ECEB601EB
:1017A00080E290E0A0DD2A94F7CFF6018681978150
:1017B00002C08FEF9FEF2B960FB6F894DEBF0FBEDF
:1017C000CDBFDF91CF911F910F91FF90EF90DF90F0
:1017D000CF90BF90AF909F908F907F906F905F90D1
:1017E0004F903F902F900895FC01059061507040FC
:1017F0000110D8F7809590958E0F9F1F0895FC01DA
:101800006150704001900110D8F7809590958E0F2F
:101810009F1F0895FA01AA27283051F1203181F144
:10182000E8946F936E7F6E5F7F4F8F4F9F4FAF4FE8
:10183000B1E03ED0B4E03CD0670F781F891F9A1FFB
:10184000A11D680F791F8A1F911DA11D6A0F711DAF
:10185000811D911DA11D20D009F468943F912AE0BB
:10186000269F11243019305D3193DEF6CF010895A3
:10187000462F4770405D4193B3E00FD0C9F7F6CFD4
:10188000462F4F70405D4A3318F0495D31FD40529C
:10189000419302D0A9F7EACFB4E0A6959795879532
:1018A00077956795BA95C9F7009761057105089511
:1018B0009B01AC010A2E06945795479537952795BD
:1018C000BA95C9F7620F731F841F951FA01D089555
:0418D000F894FFCFBA
:1018D4000000D00320000000000100000000000010
:1018E400EE070000000000010000000000000508F1
:1018F40000000000000200000000F60700000000E5
:101904002B323534373237313638343238002B32D3
:101914003534373030303030303030002B323534DD
:101924003732393636303938340024475047474146
:1019340000244750524D4300FF01020304050607EB
:1019440008090A41540D0041542B434D47463D318B
:101954000D0041542B434D474C3D225245432055E5
:101964004E52454144220D0041542B434D47443DC2
:10197400312C320D0041542B434D47443D312C341E
:101984000D0041542B434D47573D2200222C313446
:10199400352C2253544F20554E53454E54220D0A94
:1019A40025630041542B43474154543D310D0041BC
:1019B400542B4349504D55583D300D0041542B4351
:1019C4005354543D22736166617269636F6D222CB6
:1019D40022222C22220D0041542B43494943520018
:1019E40041542B43494653520D0041542B43495013
:1019F40053544152543D22544350222C2231363701
:101A04002E39392E3230342E313131222C223230DB
:101A14003030220D0041542B43495053454E440D60
:101A2400002343415220504C415445204E4F3A5BD1
:101A34004B435020323133535D0D0D25730D257307
:101A44000D0A425546465B31335D203D2025630D2A
:101A54000D0A436172207374617475732069732075
:101A64003D2025630D0D0A54657874206E6F232084
:101A74006973203A25730D0D0A0041542B434950D4
:101A8400434C4F53450D0041542B43495053485543
:101A9400540D0041542B43504D533D224D54222CA0
:101AA40022534D222C224D45220D0041542B4350EC
:101AB4004D533F0D0041542B434D47523D310D00D2
:101AC4000D0A4D656D6F7279206361726420636FD6
:101AD4006E74656E747320696E20627566666572D5
:0C1AE40020617265203A2A0025642A0067
:00000001FF
